:020000020000FC
:0200000029C015
:02004C003AC0B8
:1000540004E00EBF0FE50DBF0E9442000E9459004C
:100064000FEF0ABB04BB0BBB00E805BB0BE003BFEF
:1000740001E008BF02E009BF0BE90CBF7894FFCF91
:10008400D0E0C8E603E008830FE9098305E20A83A8
:100094000DE00B8309E90C8309E40D8301E40E836D
:1000A4000FE10F8301E0088709E009870895B0E0B4
:1000B400A0E601E00D9303950930E1F708950FEFF1
:1000C4000BBB05B20DD005BA0FD0012D0A95B0E0D7
:1000D400A0E61127A00FB11F0C900CD01BBA1895E5
:1000E4000027000C001E08951124002D139406957A
:1000F400E9F70895002D1FEF0A3030F4B0E0A8E6C8
:0C0104002227A00FB21F1C91112E08959D
:00000001FF
