S00B000070726A2E73726563CD
S11300000C942A000C943C000C943C000C943C008E
S11300100C943C000C943C000C943C000C943C006C
S11300200C943C000C943C000C943C000C943C005C
S11300300C943C000C943C000C943C000C943C004C
S11300400C943C000C943C000C943C000C943C003C
S11300500C943C0011241FBECFE5D4E0DEBFCDBF1D
S113006020E0A0E6B0E001C01D92A237B207E1F79C
S11300700E9467000C946A000C940000EAE6F0E029
S113008081E0808382E0818383E0828384E08383D0
S113009085E0848386E0858387E0868388E08783A0
S11300A0E0E6F0E08BE080838CE081838DE0828366
S11300B08EE083838FE0848380E1858381E186837E
S11300C082E1878383E1808784E1818708950E94A8
S10B00D03E00FFCFF894FFCFBE
S9030000FC
