S00F000070726F6772616D2E737265631D
S11300000C942A000C9434000C9434000C943400A6
S11300100C9434000C9434000C9434000C9434008C
S11300200C9434000C9434000C9434000C9436007A
S11300300C9455000C9434000C9434000C9434004B
S11300400C9434000C9434000C9434000C94870009
S11300500C94340011241FBECFE5D4E0DEBFCDBF25
S11300600E9402010C940F010C9400002CB12CB1DD
S1130070242F322F333459F03E3449F0313449F0CF
S1130080343539F03D3029F03A3021F00AC071D0CE
S11300900BC00AC020916000239520936000559AFC
S11300A003C03F70032E58D01895209161002F3F54
S11300B041F02F3489F02B34A9F02D30C9F02A30C7
S11300C0E9F0209160002A95209360002FE42093AA
S11300D061002CB924BD1AC02BE4209361002CB913
S11300E024BD14C02DE0209361002CB924BD0EC0A2
S11300F02AE0209361002CB924BD08C02FEF20937F
S1130100610020916000203009F4559818952FEF74
S11301102BBB05B20CD005BA0ED02F2F2A95B0E018
S1130120ADE6A20FB11D0C900CD0FBBB1895222795
S1130130000C021E0895FF27202DF3952695E9F75C
S11301400895202D3FEF2B3028F4B0E0A2E6A20F53
S1130150B11D3C91F32F0895B0E0ADE6169627E06B
S11301603D913C9312972A95D9F7B0E0ADE60C92F5
S11301700895B0E0ADE622273AE03D932395283078
S1130180E1F7089580E090E02AE0FC01E359FF4F95
S11301902083019688309105C1F7E2E6F0E083E020
S11301A080838FE9818385E282838DE0838389E97B
S11301B0848389E4858381E486838FE1878391E066
S11301C0908789E081878FEF82878ABB84BB8BBB52
S11301D080E885BB8CE083BF98BF82E089BF8DE453
S11301E08CBF089581B381BB899A10BC80E489B91E
S11301F088E98AB986E880BD8FEF80936100109208
S113020060000895CF93DF9300D0CDB7DEB70E948E
S1130210C2000E94F20078941A821982FDCFF894E9
S1050220FFCF0A
S9030000FC
