:020000020000FC
:02000000C5C079
:02002C0087C08B
:02004C0038C0BA
:100054000E943D000E9456000FEF0ABB04BB0BBB7D
:1000640000E805BB0CE003BF01E008BF02E009BFE4
:100074000DE40CBF0895D0E0C8E603E008830FE95F
:10008400098305E20A830DE00B8309E90C8309E483
:100094000D8301E40E830FE10F8301E0088709E07B
:1000A40009870FEF0A870895B0E0A0E600271AE059
:1000B4001D9303950830E1F708950FEF0BBB05B2CC
:1000C4000DD005BA0FD0012D0A95B0E0A0E6112796
:1000D400A00FB11F0C900CD01BBA18950027000C70
:1000E400001E08951124002D13940695E9F7089530
:1000F400002D1FEF0B3030F4B0E0A8E62227A00F4C
:10010400B21F1C91112E0895B0E0A0E6169607E0E8
:100114001D911C9312970A95D9F7B0E0A0E60C92B2
:1001240008958898899A00E000BD00E409B908E9B7
:100134000AB906E800BD08950CB10CB10F2D102FBB
:10014400133411F4B1DF18951E3411F4ADDF189592
:100154001D3009F418951A3011F405D018951F7044
:10016400012ED2DF18955D9BFECF01E404BD5D9B9B
:10017400FECF04E504BD5D9BFECF0DE004BD5D9B99
:10018400FECF0AE004BD089504E00EBF0FE50DBFE5
:080194005FDFC7DF7894FFCFA5
:00000001FF
