:020000020000FC
:02000000F6C048
:02002C008DC085
:02003000ACC062
:02004C0038C0BA
:100054000E943D000E9456000FEF0ABB04BB0BBB7D
:1000640000E805BB0CE003BF01E008BF02E009BFE4
:100074000DE40CBF0895D0E0C8E603E008830FE95F
:10008400098305E20A830DE00B8309E90C8309E483
:100094000D8301E40E830FE10F8301E0088709E07B
:1000A40009870FEF0A870895B0E0A0E600271AE059
:1000B4001D9303950830E1F708950FEF0BBB05B2CC
:1000C4000DD005BA0FD0012D0A95B0E0A0E6112796
:1000D400A00FB11F0C900CD01BBA18950027000C70
:1000E400001E08951124002D13940695E9F7089530
:1000F400002D1FEF0B3030F4B0E0A8E62227A00F4C
:10010400B21F1C91112E0895B0E0A0E6169607E0E8
:100114001D911C9312970A95D9F7B0E0A0E60C92B2
:1001240008958898899A00E000BD00E409B908E9B7
:100134000AB906E800BD0FEF00937300002700938F
:10014400740008950CB10CB10F2D102F133439F035
:100154001E3429F01D3029F01A3021F00AC0A4DF22
:100164000BC00AC000917400039500937400559A63
:1001740003C01F70012EC8DF18955D9BFECF01E4FC
:100184000CB904BD0895009173000F3F41F00F3482
:1001940089F00B34A9F00D30C9F00A30E9F0009170
:1001A40074000A95009374000FE4009373000CB973
:1001B40004BD1AC00BE4009373000CB904BD14C051
:1001C4000DE0009373000CB904BD0EC00AE0009367
:1001D40073000CB904BD08C00FEF009373000091C5
:1001E4007400003009F45598189504E00EBF0FE52B
:0A01F4000DBF2EDF96DF7894FFCFD9
:00000001FF
